{
  "address": "0x1Fc999c301D2A05e3485F4109789675c98E5090b",
  "abi": [
    {
      "inputs": [
        {
          "internalType": "address",
          "name": "admin",
          "type": "address"
        }
      ],
      "stateMutability": "nonpayable",
      "type": "constructor"
    },
    {
      "inputs": [],
      "name": "AccessControlBadConfirmation",
      "type": "error"
    },
    {
      "inputs": [
        {
          "internalType": "address",
          "name": "account",
          "type": "address"
        },
        {
          "internalType": "bytes32",
          "name": "neededRole",
          "type": "bytes32"
        }
      ],
      "name": "AccessControlUnauthorizedAccount",
      "type": "error"
    },
    {
      "inputs": [],
      "name": "ECDSAInvalidSignature",
      "type": "error"
    },
    {
      "inputs": [
        {
          "internalType": "uint256",
          "name": "length",
          "type": "uint256"
        }
      ],
      "name": "ECDSAInvalidSignatureLength",
      "type": "error"
    },
    {
      "inputs": [
        {
          "internalType": "bytes32",
          "name": "s",
          "type": "bytes32"
        }
      ],
      "name": "ECDSAInvalidSignatureS",
      "type": "error"
    },
    {
      "inputs": [
        {
          "internalType": "address",
          "name": "sender",
          "type": "address"
        },
        {
          "internalType": "uint256",
          "name": "tokenId",
          "type": "uint256"
        },
        {
          "internalType": "address",
          "name": "owner",
          "type": "address"
        }
      ],
      "name": "ERC721IncorrectOwner",
      "type": "error"
    },
    {
      "inputs": [
        {
          "internalType": "address",
          "name": "operator",
          "type": "address"
        },
        {
          "internalType": "uint256",
          "name": "tokenId",
          "type": "uint256"
        }
      ],
      "name": "ERC721InsufficientApproval",
      "type": "error"
    },
    {
      "inputs": [
        {
          "internalType": "address",
          "name": "approver",
          "type": "address"
        }
      ],
      "name": "ERC721InvalidApprover",
      "type": "error"
    },
    {
      "inputs": [
        {
          "internalType": "address",
          "name": "operator",
          "type": "address"
        }
      ],
      "name": "ERC721InvalidOperator",
      "type": "error"
    },
    {
      "inputs": [
        {
          "internalType": "address",
          "name": "owner",
          "type": "address"
        }
      ],
      "name": "ERC721InvalidOwner",
      "type": "error"
    },
    {
      "inputs": [
        {
          "internalType": "address",
          "name": "receiver",
          "type": "address"
        }
      ],
      "name": "ERC721InvalidReceiver",
      "type": "error"
    },
    {
      "inputs": [
        {
          "internalType": "address",
          "name": "sender",
          "type": "address"
        }
      ],
      "name": "ERC721InvalidSender",
      "type": "error"
    },
    {
      "inputs": [
        {
          "internalType": "uint256",
          "name": "tokenId",
          "type": "uint256"
        }
      ],
      "name": "ERC721NonexistentToken",
      "type": "error"
    },
    {
      "inputs": [],
      "name": "InvalidShortString",
      "type": "error"
    },
    {
      "inputs": [
        {
          "internalType": "string",
          "name": "str",
          "type": "string"
        }
      ],
      "name": "StringTooLong",
      "type": "error"
    },
    {
      "anonymous": false,
      "inputs": [
        {
          "indexed": true,
          "internalType": "address",
          "name": "owner",
          "type": "address"
        },
        {
          "indexed": true,
          "internalType": "address",
          "name": "approved",
          "type": "address"
        },
        {
          "indexed": true,
          "internalType": "uint256",
          "name": "tokenId",
          "type": "uint256"
        }
      ],
      "name": "Approval",
      "type": "event"
    },
    {
      "anonymous": false,
      "inputs": [
        {
          "indexed": true,
          "internalType": "address",
          "name": "owner",
          "type": "address"
        },
        {
          "indexed": true,
          "internalType": "address",
          "name": "operator",
          "type": "address"
        },
        {
          "indexed": false,
          "internalType": "bool",
          "name": "approved",
          "type": "bool"
        }
      ],
      "name": "ApprovalForAll",
      "type": "event"
    },
    {
      "anonymous": false,
      "inputs": [
        {
          "indexed": true,
          "internalType": "uint256",
          "name": "tokenId",
          "type": "uint256"
        },
        {
          "indexed": true,
          "internalType": "address",
          "name": "to",
          "type": "address"
        },
        {
          "indexed": true,
          "internalType": "address",
          "name": "auditedContract",
          "type": "address"
        },
        {
          "indexed": false,
          "internalType": "uint256",
          "name": "chainId",
          "type": "uint256"
        },
        {
          "indexed": false,
          "internalType": "uint8",
          "name": "score",
          "type": "uint8"
        },
        {
          "indexed": false,
          "internalType": "string",
          "name": "cid",
          "type": "string"
        },
        {
          "indexed": false,
          "internalType": "address",
          "name": "auditor",
          "type": "address"
        }
      ],
      "name": "AuditMinted",
      "type": "event"
    },
    {
      "anonymous": false,
      "inputs": [
        {
          "indexed": true,
          "internalType": "uint256",
          "name": "tokenId",
          "type": "uint256"
        },
        {
          "indexed": true,
          "internalType": "address",
          "name": "by",
          "type": "address"
        }
      ],
      "name": "AuditRevoked",
      "type": "event"
    },
    {
      "anonymous": false,
      "inputs": [],
      "name": "EIP712DomainChanged",
      "type": "event"
    },
    {
      "anonymous": false,
      "inputs": [
        {
          "indexed": true,
          "internalType": "bytes32",
          "name": "role",
          "type": "bytes32"
        },
        {
          "indexed": true,
          "internalType": "bytes32",
          "name": "previousAdminRole",
          "type": "bytes32"
        },
        {
          "indexed": true,
          "internalType": "bytes32",
          "name": "newAdminRole",
          "type": "bytes32"
        }
      ],
      "name": "RoleAdminChanged",
      "type": "event"
    },
    {
      "anonymous": false,
      "inputs": [
        {
          "indexed": true,
          "internalType": "bytes32",
          "name": "role",
          "type": "bytes32"
        },
        {
          "indexed": true,
          "internalType": "address",
          "name": "account",
          "type": "address"
        },
        {
          "indexed": true,
          "internalType": "address",
          "name": "sender",
          "type": "address"
        }
      ],
      "name": "RoleGranted",
      "type": "event"
    },
    {
      "anonymous": false,
      "inputs": [
        {
          "indexed": true,
          "internalType": "bytes32",
          "name": "role",
          "type": "bytes32"
        },
        {
          "indexed": true,
          "internalType": "address",
          "name": "account",
          "type": "address"
        },
        {
          "indexed": true,
          "internalType": "address",
          "name": "sender",
          "type": "address"
        }
      ],
      "name": "RoleRevoked",
      "type": "event"
    },
    {
      "anonymous": false,
      "inputs": [
        {
          "indexed": true,
          "internalType": "address",
          "name": "from",
          "type": "address"
        },
        {
          "indexed": true,
          "internalType": "address",
          "name": "to",
          "type": "address"
        },
        {
          "indexed": true,
          "internalType": "uint256",
          "name": "tokenId",
          "type": "uint256"
        }
      ],
      "name": "Transfer",
      "type": "event"
    },
    {
      "inputs": [],
      "name": "AUDITOR_ROLE",
      "outputs": [
        {
          "internalType": "bytes32",
          "name": "",
          "type": "bytes32"
        }
      ],
      "stateMutability": "view",
      "type": "function"
    },
    {
      "inputs": [],
      "name": "DEFAULT_ADMIN_ROLE",
      "outputs": [
        {
          "internalType": "bytes32",
          "name": "",
          "type": "bytes32"
        }
      ],
      "stateMutability": "view",
      "type": "function"
    },
    {
      "inputs": [
        {
          "internalType": "address",
          "name": "to",
          "type": "address"
        },
        {
          "internalType": "uint256",
          "name": "tokenId",
          "type": "uint256"
        }
      ],
      "name": "approve",
      "outputs": [],
      "stateMutability": "nonpayable",
      "type": "function"
    },
    {
      "inputs": [
        {
          "internalType": "uint256",
          "name": "",
          "type": "uint256"
        }
      ],
      "name": "auditOfToken",
      "outputs": [
        {
          "internalType": "address",
          "name": "auditedContract",
          "type": "address"
        },
        {
          "internalType": "uint256",
          "name": "chainId",
          "type": "uint256"
        },
        {
          "internalType": "uint8",
          "name": "score",
          "type": "uint8"
        },
        {
          "internalType": "string",
          "name": "cid",
          "type": "string"
        },
        {
          "internalType": "address",
          "name": "auditor",
          "type": "address"
        },
        {
          "internalType": "uint64",
          "name": "timestamp",
          "type": "uint64"
        },
        {
          "internalType": "bool",
          "name": "revoked",
          "type": "bool"
        }
      ],
      "stateMutability": "view",
      "type": "function"
    },
    {
      "inputs": [
        {
          "internalType": "uint256",
          "name": "tokenId",
          "type": "uint256"
        }
      ],
      "name": "auditSummary",
      "outputs": [
        {
          "internalType": "address",
          "name": "owner",
          "type": "address"
        },
        {
          "internalType": "address",
          "name": "auditedContract",
          "type": "address"
        },
        {
          "internalType": "uint256",
          "name": "chainId_",
          "type": "uint256"
        },
        {
          "internalType": "uint8",
          "name": "score",
          "type": "uint8"
        },
        {
          "internalType": "string",
          "name": "cid",
          "type": "string"
        },
        {
          "internalType": "address",
          "name": "auditor_",
          "type": "address"
        },
        {
          "internalType": "uint64",
          "name": "timestamp",
          "type": "uint64"
        },
        {
          "internalType": "bool",
          "name": "revoked",
          "type": "bool"
        }
      ],
      "stateMutability": "view",
      "type": "function"
    },
    {
      "inputs": [
        {
          "internalType": "address",
          "name": "owner",
          "type": "address"
        }
      ],
      "name": "balanceOf",
      "outputs": [
        {
          "internalType": "uint256",
          "name": "",
          "type": "uint256"
        }
      ],
      "stateMutability": "view",
      "type": "function"
    },
    {
      "inputs": [],
      "name": "eip712Domain",
      "outputs": [
        {
          "internalType": "bytes1",
          "name": "fields",
          "type": "bytes1"
        },
        {
          "internalType": "string",
          "name": "name",
          "type": "string"
        },
        {
          "internalType": "string",
          "name": "version",
          "type": "string"
        },
        {
          "internalType": "uint256",
          "name": "chainId",
          "type": "uint256"
        },
        {
          "internalType": "address",
          "name": "verifyingContract",
          "type": "address"
        },
        {
          "internalType": "bytes32",
          "name": "salt",
          "type": "bytes32"
        },
        {
          "internalType": "uint256[]",
          "name": "extensions",
          "type": "uint256[]"
        }
      ],
      "stateMutability": "view",
      "type": "function"
    },
    {
      "inputs": [
        {
          "internalType": "uint256",
          "name": "tokenId",
          "type": "uint256"
        }
      ],
      "name": "getApproved",
      "outputs": [
        {
          "internalType": "address",
          "name": "",
          "type": "address"
        }
      ],
      "stateMutability": "view",
      "type": "function"
    },
    {
      "inputs": [
        {
          "internalType": "address",
          "name": "target",
          "type": "address"
        }
      ],
      "name": "getAuditsByContract",
      "outputs": [
        {
          "internalType": "uint256[]",
          "name": "",
          "type": "uint256[]"
        }
      ],
      "stateMutability": "view",
      "type": "function"
    },
    {
      "inputs": [
        {
          "internalType": "bytes32",
          "name": "role",
          "type": "bytes32"
        }
      ],
      "name": "getRoleAdmin",
      "outputs": [
        {
          "internalType": "bytes32",
          "name": "",
          "type": "bytes32"
        }
      ],
      "stateMutability": "view",
      "type": "function"
    },
    {
      "inputs": [
        {
          "internalType": "bytes32",
          "name": "role",
          "type": "bytes32"
        },
        {
          "internalType": "address",
          "name": "account",
          "type": "address"
        }
      ],
      "name": "grantRole",
      "outputs": [],
      "stateMutability": "nonpayable",
      "type": "function"
    },
    {
      "inputs": [
        {
          "internalType": "bytes32",
          "name": "role",
          "type": "bytes32"
        },
        {
          "internalType": "address",
          "name": "account",
          "type": "address"
        }
      ],
      "name": "hasRole",
      "outputs": [
        {
          "internalType": "bool",
          "name": "",
          "type": "bool"
        }
      ],
      "stateMutability": "view",
      "type": "function"
    },
    {
      "inputs": [
        {
          "internalType": "address",
          "name": "owner",
          "type": "address"
        },
        {
          "internalType": "address",
          "name": "operator",
          "type": "address"
        }
      ],
      "name": "isApprovedForAll",
      "outputs": [
        {
          "internalType": "bool",
          "name": "",
          "type": "bool"
        }
      ],
      "stateMutability": "view",
      "type": "function"
    },
    {
      "inputs": [
        {
          "internalType": "address",
          "name": "target",
          "type": "address"
        }
      ],
      "name": "latestAuditOf",
      "outputs": [
        {
          "internalType": "uint256",
          "name": "tokenId",
          "type": "uint256"
        }
      ],
      "stateMutability": "view",
      "type": "function"
    },
    {
      "inputs": [
        {
          "internalType": "address",
          "name": "to",
          "type": "address"
        },
        {
          "internalType": "address",
          "name": "auditedContract",
          "type": "address"
        },
        {
          "internalType": "uint256",
          "name": "chainId_",
          "type": "uint256"
        },
        {
          "internalType": "uint8",
          "name": "score",
          "type": "uint8"
        },
        {
          "internalType": "string",
          "name": "cid",
          "type": "string"
        }
      ],
      "name": "mintAudit",
      "outputs": [
        {
          "internalType": "uint256",
          "name": "tokenId",
          "type": "uint256"
        }
      ],
      "stateMutability": "nonpayable",
      "type": "function"
    },
    {
      "inputs": [
        {
          "internalType": "address",
          "name": "to",
          "type": "address"
        },
        {
          "internalType": "address",
          "name": "auditedContract",
          "type": "address"
        },
        {
          "internalType": "uint256",
          "name": "chainId_",
          "type": "uint256"
        },
        {
          "internalType": "uint8",
          "name": "score",
          "type": "uint8"
        },
        {
          "internalType": "string",
          "name": "cid",
          "type": "string"
        },
        {
          "internalType": "uint256",
          "name": "deadline",
          "type": "uint256"
        },
        {
          "internalType": "bytes",
          "name": "signature",
          "type": "bytes"
        }
      ],
      "name": "mintAuditWithSig",
      "outputs": [
        {
          "internalType": "uint256",
          "name": "tokenId",
          "type": "uint256"
        }
      ],
      "stateMutability": "nonpayable",
      "type": "function"
    },
    {
      "inputs": [],
      "name": "name",
      "outputs": [
        {
          "internalType": "string",
          "name": "",
          "type": "string"
        }
      ],
      "stateMutability": "view",
      "type": "function"
    },
    {
      "inputs": [
        {
          "internalType": "address",
          "name": "",
          "type": "address"
        }
      ],
      "name": "nonces",
      "outputs": [
        {
          "internalType": "uint256",
          "name": "",
          "type": "uint256"
        }
      ],
      "stateMutability": "view",
      "type": "function"
    },
    {
      "inputs": [
        {
          "internalType": "uint256",
          "name": "tokenId",
          "type": "uint256"
        }
      ],
      "name": "ownerOf",
      "outputs": [
        {
          "internalType": "address",
          "name": "",
          "type": "address"
        }
      ],
      "stateMutability": "view",
      "type": "function"
    },
    {
      "inputs": [
        {
          "internalType": "bytes32",
          "name": "role",
          "type": "bytes32"
        },
        {
          "internalType": "address",
          "name": "callerConfirmation",
          "type": "address"
        }
      ],
      "name": "renounceRole",
      "outputs": [],
      "stateMutability": "nonpayable",
      "type": "function"
    },
    {
      "inputs": [
        {
          "internalType": "uint256",
          "name": "tokenId",
          "type": "uint256"
        }
      ],
      "name": "revoke",
      "outputs": [],
      "stateMutability": "nonpayable",
      "type": "function"
    },
    {
      "inputs": [
        {
          "internalType": "bytes32",
          "name": "role",
          "type": "bytes32"
        },
        {
          "internalType": "address",
          "name": "account",
          "type": "address"
        }
      ],
      "name": "revokeRole",
      "outputs": [],
      "stateMutability": "nonpayable",
      "type": "function"
    },
    {
      "inputs": [
        {
          "internalType": "address",
          "name": "from",
          "type": "address"
        },
        {
          "internalType": "address",
          "name": "to",
          "type": "address"
        },
        {
          "internalType": "uint256",
          "name": "tokenId",
          "type": "uint256"
        }
      ],
      "name": "safeTransferFrom",
      "outputs": [],
      "stateMutability": "nonpayable",
      "type": "function"
    },
    {
      "inputs": [
        {
          "internalType": "address",
          "name": "from",
          "type": "address"
        },
        {
          "internalType": "address",
          "name": "to",
          "type": "address"
        },
        {
          "internalType": "uint256",
          "name": "tokenId",
          "type": "uint256"
        },
        {
          "internalType": "bytes",
          "name": "data",
          "type": "bytes"
        }
      ],
      "name": "safeTransferFrom",
      "outputs": [],
      "stateMutability": "nonpayable",
      "type": "function"
    },
    {
      "inputs": [
        {
          "internalType": "address",
          "name": "operator",
          "type": "address"
        },
        {
          "internalType": "bool",
          "name": "approved",
          "type": "bool"
        }
      ],
      "name": "setApprovalForAll",
      "outputs": [],
      "stateMutability": "nonpayable",
      "type": "function"
    },
    {
      "inputs": [
        {
          "internalType": "bytes4",
          "name": "interfaceId",
          "type": "bytes4"
        }
      ],
      "name": "supportsInterface",
      "outputs": [
        {
          "internalType": "bool",
          "name": "",
          "type": "bool"
        }
      ],
      "stateMutability": "view",
      "type": "function"
    },
    {
      "inputs": [],
      "name": "symbol",
      "outputs": [
        {
          "internalType": "string",
          "name": "",
          "type": "string"
        }
      ],
      "stateMutability": "view",
      "type": "function"
    },
    {
      "inputs": [
        {
          "internalType": "uint256",
          "name": "tokenId",
          "type": "uint256"
        }
      ],
      "name": "tokenURI",
      "outputs": [
        {
          "internalType": "string",
          "name": "",
          "type": "string"
        }
      ],
      "stateMutability": "view",
      "type": "function"
    },
    {
      "inputs": [
        {
          "internalType": "address",
          "name": "from",
          "type": "address"
        },
        {
          "internalType": "address",
          "name": "to",
          "type": "address"
        },
        {
          "internalType": "uint256",
          "name": "tokenId",
          "type": "uint256"
        }
      ],
      "name": "transferFrom",
      "outputs": [],
      "stateMutability": "nonpayable",
      "type": "function"
    }
  ],
  "transactionHash": "0x5aaae00749ade130b925259c8bf284aa411c8a7c1ac0d87a8818e5c2a7328025",
  "args": [
    "0x0bC4AD466c9458ccB3d2cbC15D9D88B7873Ee08e"
  ],
  "numDeployments": 2,
  "solcInputHash": "1fa5d9d1948efeb6a3b9de76320ce83c",
  "bytecode": "0x61016060405260016009553480156200001757600080fd5b5060405162002c6b38038062002c6b8339810160408190526200003a91620002e2565b6040518060400160405280600c81526020016b141c9bdbd993d9905d591a5d60a21b815250604051806040016040528060018152602001603160f81b8152506040518060400160405280600e81526020016d141c9bdbd9881bd988105d591a5d60921b81525060405180604001604052806003815260200162506f4160e81b8152508160009081620000cd9190620003b9565b506001620000dc8282620003b9565b50620000ee91508390506007620001ab565b61012052620000ff816008620001ab565b61014052815160208084019190912060e052815190820120610100524660a0526200018d60e05161010051604080517f8b73c3c69bb8fe3d512ecc4cf759cc79239f7b179b0ffacaa9a75d522b39400f60208201529081019290925260608201524660808201523060a082015260009060c00160405160208183030381529060405280519060200120905090565b60805250503060c052620001a3600082620001e4565b5050620004fa565b6000602083511015620001cb57620001c38362000296565b9050620001de565b81620001d88482620003b9565b5060ff90505b92915050565b60008281526006602090815260408083206001600160a01b038516845290915281205460ff166200028d5760008381526006602090815260408083206001600160a01b03861684529091529020805460ff19166001179055620002443390565b6001600160a01b0316826001600160a01b0316847f2f8788117e7eff1d82e926ec794901d17c78024a50270940304540a733656f0d60405160405180910390a4506001620001de565b506000620001de565b600080829050601f81511115620002cd578260405163305a27a960e01b8152600401620002c4919062000485565b60405180910390fd5b8051620002da82620004d5565b179392505050565b600060208284031215620002f557600080fd5b81516001600160a01b03811681146200030d57600080fd5b9392505050565b634e487b7160e01b600052604160045260246000fd5b600181811c908216806200033f57607f821691505b6020821081036200036057634e487b7160e01b600052602260045260246000fd5b50919050565b601f821115620003b457600081815260208120601f850160051c810160208610156200038f5750805b601f850160051c820191505b81811015620003b0578281556001016200039b565b5050505b505050565b81516001600160401b03811115620003d557620003d562000314565b620003ed81620003e684546200032a565b8462000366565b602080601f8311600181146200042557600084156200040c5750858301515b600019600386901b1c1916600185901b178555620003b0565b600085815260208120601f198616915b82811015620004565788860151825594840194600190910190840162000435565b5085821015620004755787850151600019600388901b60f8161c191681555b5050505050600190811b01905550565b600060208083528351808285015260005b81811015620004b45785810183015185820160400152820162000496565b506000604082860101526040601f19601f8301168501019250505092915050565b80516020808301519190811015620003605760001960209190910360031b1b16919050565b60805160a05160c05160e0516101005161012051610140516127166200055560003960006114940152600061146201526000611a6b01526000611a430152600061199e015260006119c8015260006119f201526127166000f3fe608060405234801561001057600080fd5b50600436106101cf5760003560e01c806370a0823111610104578063b88d4fde116100a2578063d547741f11610071578063d547741f14610445578063e985e9c514610458578063eaac81b41461046b578063ef62b2df1461047e57600080fd5b8063b88d4fde146103d9578063bf487530146103ec578063c87b56dd1461040c578063cbe257111461041f57600080fd5b806391d14854116100de57806391d14854146103a357806395d89b41146103b6578063a217fddf146103be578063a22cb465146103c657600080fd5b806370a08231146103555780637ecebe001461036857806384b0196e1461038857600080fd5b806323b872dd1161017157806336568abe1161014b57806336568abe146102f557806342842e0e146103085780636352211e1461031b5780636e1d616e1461032e57600080fd5b806323b872dd146102ac578063248a9ca3146102bf5780632f2ff15d146102e257600080fd5b8063095ea7b3116101ad578063095ea7b31461023c5780630f60e1c5146102515780631ee9737a1461027857806320c5429b1461029957600080fd5b806301ffc9a7146101d457806306fdde03146101fc578063081812fc14610211575b600080fd5b6101e76101e2366004611df0565b610491565b60405190151581526020015b60405180910390f35b6102046104a2565b6040516101f39190611e5a565b61022461021f366004611e6d565b610534565b6040516001600160a01b0390911681526020016101f3565b61024f61024a366004611ea2565b61055d565b005b61026461025f366004611e6d565b61056c565b6040516101f3989796959493929190611ecc565b61028b610286366004611f8e565b610767565b6040519081526020016101f3565b61024f6102a7366004611e6d565b61078c565b61024f6102ba36600461200c565b6108bd565b61028b6102cd366004611e6d565b60009081526006602052604090206001015490565b61024f6102f0366004612048565b610948565b61024f610303366004612048565b61096d565b61024f61031636600461200c565b6109a5565b610224610329366004611e6d565b6109c0565b61028b7f59a1c48e5837ad7a7f3dcedcbe129bf3249ec4fbf651fd4f5e2600ead39fe2f581565b61028b610363366004612074565b6109cb565b61028b610376366004612074565b600c6020526000908152604090205481565b610390610a13565b6040516101f397969594939291906120ca565b6101e76103b1366004612048565b610a59565b610204610a84565b61028b600081565b61024f6103d436600461213a565b610a93565b61024f6103e736600461218c565b610a9e565b6103ff6103fa366004612074565b610ab5565b6040516101f39190612267565b61020461041a366004611e6d565b610b21565b61043261042d366004611e6d565b610b90565b6040516101f3979695949392919061227a565b61024f610453366004612048565b610c7e565b6101e76104663660046122d4565b610ca3565b61028b610479366004612074565b610cd1565b61028b61048c3660046122fe565b610d6f565b600061049c82610f6b565b92915050565b6060600080546104b1906123b4565b80601f01602080910402602001604051908101604052809291908181526020018280546104dd906123b4565b801561052a5780601f106104ff5761010080835404028352916020019161052a565b820191906000526020600020905b81548152906001019060200180831161050d57829003601f168201915b5050505050905090565b600061053f82610f90565b506000828152600460205260409020546001600160a01b031661049c565b610568828233610fc9565b5050565b60008080806060818080806105968a6000908152600260205260409020546001600160a01b031690565b6001600160a01b0316036105c55760405162461bcd60e51b81526004016105bc906123ee565b60405180910390fd5b6105ce896109c0565b60008a8152600a60209081526040808320815160e08101835281546001600160a01b03168152600182015493810193909352600281015460ff1691830191909152600381018054949c5092939192909160608401919061062d906123b4565b80601f0160208091040260200160405190810160405280929190818152602001828054610659906123b4565b80156106a65780601f1061067b576101008083540402835291602001916106a6565b820191906000526020600020905b81548152906001019060200180831161068957829003601f168201915b505050505081526020016004820160009054906101000a90046001600160a01b03166001600160a01b03166001600160a01b031681526020016004820160149054906101000a90046001600160401b03166001600160401b03166001600160401b0316815260200160048201601c9054906101000a900460ff161515151581525050905080600001519750806020015196508060400151955080606001519450806080015193508060a0015192508060c00151915050919395975091939597565b600061077284610fd6565b61078187878787878733611032565b979650505050505050565b6000818152600a602090815260408083206002909252909120546001600160a01b03166107cb5760405162461bcd60e51b81526004016105bc906123ee565b60048101546001600160a01b03163314806107ec57506107ec600033610a59565b6108295760405162461bcd60e51b815260206004820152600e60248201526d139bdd08185d5d1a1bdc9a5e995960921b60448201526064016105bc565b6004810154600160e01b900460ff16156108775760405162461bcd60e51b815260206004820152600f60248201526e105b1c9958591e481c995d9bdad959608a1b60448201526064016105bc565b60048101805460ff60e01b1916600160e01b179055604051339083907f1067f2cc36e2a0a995597210d5ac4b05c95507faa7e307edc8c91b598b540c9890600090a35050565b6001600160a01b0382166108e757604051633250574960e11b8152600060048201526024016105bc565b60006108f4838333611257565b9050836001600160a01b0316816001600160a01b031614610942576040516364283d7b60e01b81526001600160a01b03808616600483015260248201849052821660448201526064016105bc565b50505050565b60008281526006602052604090206001015461096381611350565b610942838361135a565b6001600160a01b03811633146109965760405163334bd91960e11b815260040160405180910390fd5b6109a082826113ee565b505050565b6109a083838360405180602001604052806000815250610a9e565b600061049c82610f90565b60006001600160a01b0382166109f7576040516322718ad960e21b8152600060048201526024016105bc565b506001600160a01b031660009081526003602052604090205490565b600060608060008060006060610a2761145b565b610a2f61148d565b60408051600080825260208201909252600f60f81b9b939a50919850469750309650945092509050565b60009182526006602090815260408084206001600160a01b0393909316845291905290205460ff1690565b6060600180546104b1906123b4565b6105683383836114ba565b610aa98484846108bd565b61094284848484611559565b6001600160a01b0381166000908152600b6020908152604091829020805483518184028101840190945280845260609392830182828015610b1557602002820191906000526020600020905b815481526020019060010190808311610b01575b50505050509050919050565b6000818152600260205260409020546060906001600160a01b0316610b585760405162461bcd60e51b81526004016105bc906123ee565b6000828152600a60209081526040918290209151610b7a926003019101612419565b6040516020818303038152906040529050919050565b600a6020526000908152604090208054600182015460028301546003840180546001600160a01b0390941694929360ff9092169291610bce906123b4565b80601f0160208091040260200160405190810160405280929190818152602001828054610bfa906123b4565b8015610c475780601f10610c1c57610100808354040283529160200191610c47565b820191906000526020600020905b815481529060010190602001808311610c2a57829003601f168201915b505050600490930154919250506001600160a01b038116906001600160401b03600160a01b8204169060ff600160e01b9091041687565b600082815260066020526040902060010154610c9981611350565b61094283836113ee565b6001600160a01b03918216600090815260056020908152604080832093909416825291909152205460ff1690565b6001600160a01b0381166000908152600b602052604081205480610d295760405162461bcd60e51b815260206004820152600f60248201526e139bc8185d591a5d1cc8199bdd5b99608a1b60448201526064016105bc565b6001600160a01b0383166000908152600b60205260409020610d4c6001836124be565b81548110610d5c57610d5c6124d1565b9060005260206000200154915050919050565b6000610d7a87610fd6565b83421115610dbe5760405162461bcd60e51b815260206004820152601160248201527014da59db985d1d5c9948195e1c1a5c9959607a1b60448201526064016105bc565b6001600160a01b038a166000908152600c6020526040812080549082610de3836124e7565b91905055905060007fdffcc4ee3591f526e980ed82152cb2e4fe6f3581784ff500d65f0617b2e8c94e8c8c8c8c8c8c604051610e20929190612500565b6040805191829003822060208301979097526001600160a01b0395861690820152939092166060840152608083015260ff1660a082015260c081019190915260e081018390526101008101879052610120016040516020818303038152906040528051906020012090506000610e9582611682565b90506000610ed98288888080601f0160208091040260200160405190810160405280939291908181526020018383808284376000920191909152506116af92505050565b9050610f057f59a1c48e5837ad7a7f3dcedcbe129bf3249ec4fbf651fd4f5e2600ead39fe2f582610a59565b610f4a5760405162461bcd60e51b8152602060048201526016602482015275556e617574686f72697a6564207369676e617475726560501b60448201526064016105bc565b610f598e8e8e8e8e8e87611032565b9e9d5050505050505050505050505050565b60006001600160e01b03198216637965db0b60e01b148061049c575061049c826116d9565b6000818152600260205260408120546001600160a01b03168061049c57604051637e27328960e01b8152600481018490526024016105bc565b6109a08383836001611729565b60018160ff1610158015610fee575060648160ff1611155b61102f5760405162461bcd60e51b815260206004820152601260248201527153636f7265206f7574206f662072616e676560701b60448201526064016105bc565b50565b60006001600160a01b03871661107d5760405162461bcd60e51b815260206004820152601060248201526f125b9d985b1a590818dbdb9d1c9858dd60821b60448201526064016105bc565b6009805490600061108d836124e7565b91905055905061109d888261182f565b6040518060e00160405280886001600160a01b031681526020018781526020018660ff16815260200185858080601f01602080910402602001604051908101604052809392919081815260200183838082843760009201829052509385525050506001600160a01b03858116602080850191909152426001600160401b03166040808601919091526060948501849052868452600a825292839020855181546001600160a01b031916931692909217825584015160018201559083015160028201805460ff191660ff909216919091179055908201516003820190611182908261255e565b5060808201516004909101805460a084015160c0909401511515600160e01b0260ff60e01b196001600160401b03909516600160a01b026001600160e01b03199092166001600160a01b03948516179190911793909316929092179091558781166000818152600b60209081526040808320805460018101825590845291909220018490555190918a169083907f1a44ba070a3e8c50d66d8a96d82cea20e4d85538f332741c7c9464e163fe0a2890611244908b908b908b908b908b9061261d565b60405180910390a4979650505050505050565b6000828152600260205260408120546001600160a01b039081169083161561128457611284818486611849565b6001600160a01b038116156112c2576112a1600085600080611729565b6001600160a01b038116600090815260036020526040902080546000190190555b6001600160a01b038516156112f1576001600160a01b0385166000908152600360205260409020805460010190555b60008481526002602052604080822080546001600160a01b0319166001600160a01b0389811691821790925591518793918516917fddf252ad1be2c89b69c2b068fc378daa952ba7f163c4a11628f55a4df523b3ef91a4949350505050565b61102f81336118ad565b60006113668383610a59565b6113e65760008381526006602090815260408083206001600160a01b03861684529091529020805460ff1916600117905561139e3390565b6001600160a01b0316826001600160a01b0316847f2f8788117e7eff1d82e926ec794901d17c78024a50270940304540a733656f0d60405160405180910390a450600161049c565b50600061049c565b60006113fa8383610a59565b156113e65760008381526006602090815260408083206001600160a01b0386168085529252808320805460ff1916905551339286917ff6391f5c32d9c69d2a47ea670b442974b53935d1edc7fd64eb21e047a839171b9190a450600161049c565b60606114887f000000000000000000000000000000000000000000000000000000000000000060076118e6565b905090565b60606114887f000000000000000000000000000000000000000000000000000000000000000060086118e6565b6001600160a01b0382166114ec57604051630b61174360e31b81526001600160a01b03831660048201526024016105bc565b6001600160a01b03838116600081815260056020908152604080832094871680845294825291829020805460ff191686151590811790915591519182527f17307eab39ab6107e8899845ad3d59bd9653f200f220920489ca2b5937696c31910160405180910390a3505050565b6001600160a01b0383163b1561094257604051630a85bd0160e11b81526001600160a01b0384169063150b7a029061159b903390889087908790600401612670565b6020604051808303816000875af19250505080156115d6575060408051601f3d908101601f191682019092526115d3918101906126ad565b60015b61163f573d808015611604576040519150601f19603f3d011682016040523d82523d6000602084013e611609565b606091505b50805160000361163757604051633250574960e11b81526001600160a01b03851660048201526024016105bc565b805181602001fd5b6001600160e01b03198116630a85bd0160e11b1461167b57604051633250574960e11b81526001600160a01b03851660048201526024016105bc565b5050505050565b600061049c61168f611991565b8360405161190160f01b8152600281019290925260228201526042902090565b6000806000806116bf8686611abc565b9250925092506116cf8282611b09565b5090949350505050565b60006001600160e01b031982166380ac58cd60e01b148061170a57506001600160e01b03198216635b5e139f60e01b145b8061049c57506301ffc9a760e01b6001600160e01b031983161461049c565b808061173d57506001600160a01b03821615155b156117ff57600061174d84610f90565b90506001600160a01b038316158015906117795750826001600160a01b0316816001600160a01b031614155b801561178c575061178a8184610ca3565b155b156117b55760405163a9fbf51f60e01b81526001600160a01b03841660048201526024016105bc565b81156117fd5783856001600160a01b0316826001600160a01b03167f8c5be1e5ebec7d5bd14f71427d1e84f3dd0314c0f7b2291e5b200ac8c7c3b92560405160405180910390a45b505b5050600090815260046020526040902080546001600160a01b0319166001600160a01b0392909216919091179055565b610568828260405180602001604052806000815250611bc2565b611854838383611bd9565b6109a0576001600160a01b03831661188257604051637e27328960e01b8152600481018290526024016105bc565b60405163177e802f60e01b81526001600160a01b0383166004820152602481018290526044016105bc565b6118b78282610a59565b6105685760405163e2517d3f60e01b81526001600160a01b0382166004820152602481018390526044016105bc565b606060ff8314611900576118f983611c3f565b905061049c565b81805461190c906123b4565b80601f0160208091040260200160405190810160405280929190818152602001828054611938906123b4565b80156119855780601f1061195a57610100808354040283529160200191611985565b820191906000526020600020905b81548152906001019060200180831161196857829003601f168201915b5050505050905061049c565b6000306001600160a01b037f0000000000000000000000000000000000000000000000000000000000000000161480156119ea57507f000000000000000000000000000000000000000000000000000000000000000046145b15611a1457507f000000000000000000000000000000000000000000000000000000000000000090565b611488604080517f8b73c3c69bb8fe3d512ecc4cf759cc79239f7b179b0ffacaa9a75d522b39400f60208201527f0000000000000000000000000000000000000000000000000000000000000000918101919091527f000000000000000000000000000000000000000000000000000000000000000060608201524660808201523060a082015260009060c00160405160208183030381529060405280519060200120905090565b60008060008351604103611af65760208401516040850151606086015160001a611ae888828585611c7e565b955095509550505050611b02565b50508151600091506002905b9250925092565b6000826003811115611b1d57611b1d6126ca565b03611b26575050565b6001826003811115611b3a57611b3a6126ca565b03611b585760405163f645eedf60e01b815260040160405180910390fd5b6002826003811115611b6c57611b6c6126ca565b03611b8d5760405163fce698f760e01b8152600481018290526024016105bc565b6003826003811115611ba157611ba16126ca565b03610568576040516335e2f38360e21b8152600481018290526024016105bc565b611bcc8383611d4d565b6109a06000848484611559565b60006001600160a01b03831615801590611c375750826001600160a01b0316846001600160a01b03161480611c135750611c138484610ca3565b80611c3757506000828152600460205260409020546001600160a01b038481169116145b949350505050565b60606000611c4c83611db2565b604080516020808252818301909252919250600091906020820181803683375050509182525060208101929092525090565b600080807f7fffffffffffffffffffffffffffffff5d576e7357a4501ddfe92f46681b20a0841115611cb95750600091506003905082611d43565b604080516000808252602082018084528a905260ff891692820192909252606081018790526080810186905260019060a0016020604051602081039080840390855afa158015611d0d573d6000803e3d6000fd5b5050604051601f1901519150506001600160a01b038116611d3957506000925060019150829050611d43565b9250600091508190505b9450945094915050565b6001600160a01b038216611d7757604051633250574960e11b8152600060048201526024016105bc565b6000611d8583836000611257565b90506001600160a01b038116156109a0576040516339e3563760e11b8152600060048201526024016105bc565b600060ff8216601f81111561049c57604051632cd44ac360e21b815260040160405180910390fd5b6001600160e01b03198116811461102f57600080fd5b600060208284031215611e0257600080fd5b8135611e0d81611dda565b9392505050565b6000815180845260005b81811015611e3a57602081850181015186830182015201611e1e565b506000602082860101526020601f19601f83011685010191505092915050565b602081526000611e0d6020830184611e14565b600060208284031215611e7f57600080fd5b5035919050565b80356001600160a01b0381168114611e9d57600080fd5b919050565b60008060408385031215611eb557600080fd5b611ebe83611e86565b946020939093013593505050565b6001600160a01b03898116825288811660208301526040820188905260ff8716606083015261010060808301819052600091611f0a84830189611e14565b961660a084015250506001600160401b039290921660c0830152151560e09091015295945050505050565b803560ff81168114611e9d57600080fd5b60008083601f840112611f5857600080fd5b5081356001600160401b03811115611f6f57600080fd5b602083019150836020828501011115611f8757600080fd5b9250929050565b60008060008060008060a08789031215611fa757600080fd5b611fb087611e86565b9550611fbe60208801611e86565b945060408701359350611fd360608801611f35565b925060808701356001600160401b03811115611fee57600080fd5b611ffa89828a01611f46565b979a9699509497509295939492505050565b60008060006060848603121561202157600080fd5b61202a84611e86565b925061203860208501611e86565b9150604084013590509250925092565b6000806040838503121561205b57600080fd5b8235915061206b60208401611e86565b90509250929050565b60006020828403121561208657600080fd5b611e0d82611e86565b600081518084526020808501945080840160005b838110156120bf578151875295820195908201906001016120a3565b509495945050505050565b60ff60f81b8816815260e0602082015260006120e960e0830189611e14565b82810360408401526120fb8189611e14565b606084018890526001600160a01b038716608085015260a0840186905283810360c0850152905061212c818561208f565b9a9950505050505050505050565b6000806040838503121561214d57600080fd5b61215683611e86565b91506020830135801515811461216b57600080fd5b809150509250929050565b634e487b7160e01b600052604160045260246000fd5b600080600080608085870312156121a257600080fd5b6121ab85611e86565b93506121b960208601611e86565b92506040850135915060608501356001600160401b03808211156121dc57600080fd5b818701915087601f8301126121f057600080fd5b81358181111561220257612202612176565b604051601f8201601f19908116603f0116810190838211818310171561222a5761222a612176565b816040528281528a602084870101111561224357600080fd5b82602086016020830137600060208483010152809550505050505092959194509250565b602081526000611e0d602083018461208f565b600060018060a01b03808a16835288602084015260ff8816604084015260e060608401526122ab60e0840188611e14565b95166080830152506001600160401b039290921660a0830152151560c090910152949350505050565b600080604083850312156122e757600080fd5b6122f083611e86565b915061206b60208401611e86565b600080600080600080600080600060e08a8c03121561231c57600080fd5b6123258a611e86565b985061233360208b01611e86565b975060408a0135965061234860608b01611f35565b955060808a01356001600160401b038082111561236457600080fd5b6123708d838e01611f46565b909750955060a08c0135945060c08c013591508082111561239057600080fd5b5061239d8c828d01611f46565b915080935050809150509295985092959850929598565b600181811c908216806123c857607f821691505b6020821081036123e857634e487b7160e01b600052602260045260246000fd5b50919050565b6020808252601190820152702737b732bc34b9ba32b73a103a37b5b2b760791b604082015260600190565b66697066733a2f2f60c81b81526000600760008454612437816123b4565b6001828116801561244f57600181146124685761249b565b60ff19841688870152821515830288018601945061249b565b8860005260208060002060005b858110156124905781548b82018a0152908401908201612475565b505050858389010194505b5092979650505050505050565b634e487b7160e01b600052601160045260246000fd5b8181038181111561049c5761049c6124a8565b634e487b7160e01b600052603260045260246000fd5b6000600182016124f9576124f96124a8565b5060010190565b8183823760009101908152919050565b601f8211156109a057600081815260208120601f850160051c810160208610156125375750805b601f850160051c820191505b8181101561255657828155600101612543565b505050505050565b81516001600160401b0381111561257757612577612176565b61258b8161258584546123b4565b84612510565b602080601f8311600181146125c057600084156125a85750858301515b600019600386901b1c1916600185901b178555612556565b600085815260208120601f198616915b828110156125ef578886015182559484019460019091019084016125d0565b508582101561260d5787850151600019600388901b60f8161c191681555b5050505050600190811b01905550565b85815260ff8516602082015260806040820152826080820152828460a0830137600081840160a0908101919091526001600160a01b03929092166060820152601f909201601f1916909101019392505050565b6001600160a01b03858116825284166020820152604081018390526080606082018190526000906126a390830184611e14565b9695505050505050565b6000602082840312156126bf57600080fd5b8151611e0d81611dda565b634e487b7160e01b600052602160045260246000fdfea2646970667358221220418832ca66f0ed0f4ba6214f0d21001f45be2685b01e5a9077fbbc494a8c8c0064736f6c63430008140033",
  "devdoc": {
    "details": "ERC721 token representing a proof of smart contract audit.      Supports direct minting and EIP-712 signed minting by authorized auditors.      Stores audit metadata on-chain and links to an IPFS report.",
    "errors": {
      "AccessControlBadConfirmation()": [
        {
          "details": "The caller of a function is not the expected one. NOTE: Don't confuse with {AccessControlUnauthorizedAccount}."
        }
      ],
      "AccessControlUnauthorizedAccount(address,bytes32)": [
        {
          "details": "The `account` is missing a role."
        }
      ],
      "ECDSAInvalidSignature()": [
        {
          "details": "The signature derives the `address(0)`."
        }
      ],
      "ECDSAInvalidSignatureLength(uint256)": [
        {
          "details": "The signature has an invalid length."
        }
      ],
      "ECDSAInvalidSignatureS(bytes32)": [
        {
          "details": "The signature has an S value that is in the upper half order."
        }
      ],
      "ERC721IncorrectOwner(address,uint256,address)": [
        {
          "details": "Indicates an error related to the ownership over a particular token. Used in transfers.",
          "params": {
            "owner": "Address of the current owner of a token.",
            "sender": "Address whose tokens are being transferred.",
            "tokenId": "Identifier number of a token."
          }
        }
      ],
      "ERC721InsufficientApproval(address,uint256)": [
        {
          "details": "Indicates a failure with the `operator`s approval. Used in transfers.",
          "params": {
            "operator": "Address that may be allowed to operate on tokens without being their owner.",
            "tokenId": "Identifier number of a token."
          }
        }
      ],
      "ERC721InvalidApprover(address)": [
        {
          "details": "Indicates a failure with the `approver` of a token to be approved. Used in approvals.",
          "params": {
            "approver": "Address initiating an approval operation."
          }
        }
      ],
      "ERC721InvalidOperator(address)": [
        {
          "details": "Indicates a failure with the `operator` to be approved. Used in approvals.",
          "params": {
            "operator": "Address that may be allowed to operate on tokens without being their owner."
          }
        }
      ],
      "ERC721InvalidOwner(address)": [
        {
          "details": "Indicates that an address can't be an owner. For example, `address(0)` is a forbidden owner in EIP-20. Used in balance queries.",
          "params": {
            "owner": "Address of the current owner of a token."
          }
        }
      ],
      "ERC721InvalidReceiver(address)": [
        {
          "details": "Indicates a failure with the token `receiver`. Used in transfers.",
          "params": {
            "receiver": "Address to which tokens are being transferred."
          }
        }
      ],
      "ERC721InvalidSender(address)": [
        {
          "details": "Indicates a failure with the token `sender`. Used in transfers.",
          "params": {
            "sender": "Address whose tokens are being transferred."
          }
        }
      ],
      "ERC721NonexistentToken(uint256)": [
        {
          "details": "Indicates a `tokenId` whose `owner` is the zero address.",
          "params": {
            "tokenId": "Identifier number of a token."
          }
        }
      ]
    },
    "events": {
      "Approval(address,address,uint256)": {
        "details": "Emitted when `owner` enables `approved` to manage the `tokenId` token."
      },
      "ApprovalForAll(address,address,bool)": {
        "details": "Emitted when `owner` enables or disables (`approved`) `operator` to manage all of its assets."
      },
      "EIP712DomainChanged()": {
        "details": "MAY be emitted to signal that the domain could have changed."
      },
      "RoleAdminChanged(bytes32,bytes32,bytes32)": {
        "details": "Emitted when `newAdminRole` is set as ``role``'s admin role, replacing `previousAdminRole` `DEFAULT_ADMIN_ROLE` is the starting admin for all roles, despite {RoleAdminChanged} not being emitted signaling this."
      },
      "RoleGranted(bytes32,address,address)": {
        "details": "Emitted when `account` is granted `role`. `sender` is the account that originated the contract call, an admin role bearer except when using {AccessControl-_setupRole}."
      },
      "RoleRevoked(bytes32,address,address)": {
        "details": "Emitted when `account` is revoked `role`. `sender` is the account that originated the contract call:   - if using `revokeRole`, it is the admin role bearer   - if using `renounceRole`, it is the role bearer (i.e. `account`)"
      },
      "Transfer(address,address,uint256)": {
        "details": "Emitted when `tokenId` token is transferred from `from` to `to`."
      }
    },
    "kind": "dev",
    "methods": {
      "approve(address,uint256)": {
        "details": "See {IERC721-approve}."
      },
      "balanceOf(address)": {
        "details": "See {IERC721-balanceOf}."
      },
      "eip712Domain()": {
        "details": "See {IERC-5267}."
      },
      "getApproved(uint256)": {
        "details": "See {IERC721-getApproved}."
      },
      "getRoleAdmin(bytes32)": {
        "details": "Returns the admin role that controls `role`. See {grantRole} and {revokeRole}. To change a role's admin, use {_setRoleAdmin}."
      },
      "grantRole(bytes32,address)": {
        "details": "Grants `role` to `account`. If `account` had not been already granted `role`, emits a {RoleGranted} event. Requirements: - the caller must have ``role``'s admin role. May emit a {RoleGranted} event."
      },
      "hasRole(bytes32,address)": {
        "details": "Returns `true` if `account` has been granted `role`."
      },
      "isApprovedForAll(address,address)": {
        "details": "See {IERC721-isApprovedForAll}."
      },
      "mintAudit(address,address,uint256,uint8,string)": {
        "details": "Open minting allowed for demonstration purposes in Aleph Hackathon.      For production use, consider adding onlyRole(AUDITOR_ROLE) modifier.",
        "params": {
          "auditedContract": "Address of the contract being audited",
          "chainId_": "Chain ID where the audited contract is deployed",
          "cid": "IPFS CID of the audit report",
          "score": "Audit score (1-100)",
          "to": "Address to receive the audit NFT"
        },
        "returns": {
          "tokenId": "The ID of the minted audit NFT"
        }
      },
      "mintAuditWithSig(address,address,uint256,uint8,string,uint256,bytes)": {
        "params": {
          "deadline": "Expiration timestamp for the signature."
        }
      },
      "name()": {
        "details": "See {IERC721Metadata-name}."
      },
      "ownerOf(uint256)": {
        "details": "See {IERC721-ownerOf}."
      },
      "renounceRole(bytes32,address)": {
        "details": "Revokes `role` from the calling account. Roles are often managed via {grantRole} and {revokeRole}: this function's purpose is to provide a mechanism for accounts to lose their privileges if they are compromised (such as when a trusted device is misplaced). If the calling account had been revoked `role`, emits a {RoleRevoked} event. Requirements: - the caller must be `callerConfirmation`. May emit a {RoleRevoked} event."
      },
      "revoke(uint256)": {
        "details": "Only the original auditor or an admin can revoke."
      },
      "revokeRole(bytes32,address)": {
        "details": "Revokes `role` from `account`. If `account` had been granted `role`, emits a {RoleRevoked} event. Requirements: - the caller must have ``role``'s admin role. May emit a {RoleRevoked} event."
      },
      "safeTransferFrom(address,address,uint256)": {
        "details": "See {IERC721-safeTransferFrom}."
      },
      "safeTransferFrom(address,address,uint256,bytes)": {
        "details": "See {IERC721-safeTransferFrom}."
      },
      "setApprovalForAll(address,bool)": {
        "details": "See {IERC721-setApprovalForAll}."
      },
      "symbol()": {
        "details": "See {IERC721Metadata-symbol}."
      },
      "tokenURI(uint256)": {
        "details": "See {IERC721Metadata-tokenURI}."
      },
      "transferFrom(address,address,uint256)": {
        "details": "See {IERC721-transferFrom}."
      }
    },
    "title": "ProofOfAudit",
    "version": 1
  },
  "userdoc": {
    "kind": "user",
    "methods": {
      "auditSummary(uint256)": {
        "notice": "Returns a summary of the audit data for a given token."
      },
      "mintAudit(address,address,uint256,uint8,string)": {
        "notice": "Direct minting of an audit NFT."
      },
      "mintAuditWithSig(address,address,uint256,uint8,string,uint256,bytes)": {
        "notice": "Minting with EIP-712 signature from an authorized auditor."
      },
      "revoke(uint256)": {
        "notice": "Revoke an existing audit."
      }
    },
    "version": 1
  },
  "storageLayout": {
    "storage": [
      {
        "astId": 573,
        "contract": "contracts/ProofOfAudit.sol:ProofOfAudit",
        "label": "_name",
        "offset": 0,
        "slot": "0",
        "type": "t_string_storage"
      },
      {
        "astId": 575,
        "contract": "contracts/ProofOfAudit.sol:ProofOfAudit",
        "label": "_symbol",
        "offset": 0,
        "slot": "1",
        "type": "t_string_storage"
      },
      {
        "astId": 579,
        "contract": "contracts/ProofOfAudit.sol:ProofOfAudit",
        "label": "_owners",
        "offset": 0,
        "slot": "2",
        "type": "t_mapping(t_uint256,t_address)"
      },
      {
        "astId": 583,
        "contract": "contracts/ProofOfAudit.sol:ProofOfAudit",
        "label": "_balances",
        "offset": 0,
        "slot": "3",
        "type": "t_mapping(t_address,t_uint256)"
      },
      {
        "astId": 587,
        "contract": "contracts/ProofOfAudit.sol:ProofOfAudit",
        "label": "_tokenApprovals",
        "offset": 0,
        "slot": "4",
        "type": "t_mapping(t_uint256,t_address)"
      },
      {
        "astId": 593,
        "contract": "contracts/ProofOfAudit.sol:ProofOfAudit",
        "label": "_operatorApprovals",
        "offset": 0,
        "slot": "5",
        "type": "t_mapping(t_address,t_mapping(t_address,t_bool))"
      },
      {
        "astId": 26,
        "contract": "contracts/ProofOfAudit.sol:ProofOfAudit",
        "label": "_roles",
        "offset": 0,
        "slot": "6",
        "type": "t_mapping(t_bytes32,t_struct(RoleData)21_storage)"
      },
      {
        "astId": 2709,
        "contract": "contracts/ProofOfAudit.sol:ProofOfAudit",
        "label": "_nameFallback",
        "offset": 0,
        "slot": "7",
        "type": "t_string_storage"
      },
      {
        "astId": 2711,
        "contract": "contracts/ProofOfAudit.sol:ProofOfAudit",
        "label": "_versionFallback",
        "offset": 0,
        "slot": "8",
        "type": "t_string_storage"
      },
      {
        "astId": 4198,
        "contract": "contracts/ProofOfAudit.sol:ProofOfAudit",
        "label": "_nextId",
        "offset": 0,
        "slot": "9",
        "type": "t_uint256"
      },
      {
        "astId": 4218,
        "contract": "contracts/ProofOfAudit.sol:ProofOfAudit",
        "label": "auditOfToken",
        "offset": 0,
        "slot": "10",
        "type": "t_mapping(t_uint256,t_struct(AuditData)4213_storage)"
      },
      {
        "astId": 4223,
        "contract": "contracts/ProofOfAudit.sol:ProofOfAudit",
        "label": "_auditsByContract",
        "offset": 0,
        "slot": "11",
        "type": "t_mapping(t_address,t_array(t_uint256)dyn_storage)"
      },
      {
        "astId": 4232,
        "contract": "contracts/ProofOfAudit.sol:ProofOfAudit",
        "label": "nonces",
        "offset": 0,
        "slot": "12",
        "type": "t_mapping(t_address,t_uint256)"
      }
    ],
    "types": {
      "t_address": {
        "encoding": "inplace",
        "label": "address",
        "numberOfBytes": "20"
      },
      "t_array(t_uint256)dyn_storage": {
        "base": "t_uint256",
        "encoding": "dynamic_array",
        "label": "uint256[]",
        "numberOfBytes": "32"
      },
      "t_bool": {
        "encoding": "inplace",
        "label": "bool",
        "numberOfBytes": "1"
      },
      "t_bytes32": {
        "encoding": "inplace",
        "label": "bytes32",
        "numberOfBytes": "32"
      },
      "t_mapping(t_address,t_array(t_uint256)dyn_storage)": {
        "encoding": "mapping",
        "key": "t_address",
        "label": "mapping(address => uint256[])",
        "numberOfBytes": "32",
        "value": "t_array(t_uint256)dyn_storage"
      },
      "t_mapping(t_address,t_bool)": {
        "encoding": "mapping",
        "key": "t_address",
        "label": "mapping(address => bool)",
        "numberOfBytes": "32",
        "value": "t_bool"
      },
      "t_mapping(t_address,t_mapping(t_address,t_bool))": {
        "encoding": "mapping",
        "key": "t_address",
        "label": "mapping(address => mapping(address => bool))",
        "numberOfBytes": "32",
        "value": "t_mapping(t_address,t_bool)"
      },
      "t_mapping(t_address,t_uint256)": {
        "encoding": "mapping",
        "key": "t_address",
        "label": "mapping(address => uint256)",
        "numberOfBytes": "32",
        "value": "t_uint256"
      },
      "t_mapping(t_bytes32,t_struct(RoleData)21_storage)": {
        "encoding": "mapping",
        "key": "t_bytes32",
        "label": "mapping(bytes32 => struct AccessControl.RoleData)",
        "numberOfBytes": "32",
        "value": "t_struct(RoleData)21_storage"
      },
      "t_mapping(t_uint256,t_address)": {
        "encoding": "mapping",
        "key": "t_uint256",
        "label": "mapping(uint256 => address)",
        "numberOfBytes": "32",
        "value": "t_address"
      },
      "t_mapping(t_uint256,t_struct(AuditData)4213_storage)": {
        "encoding": "mapping",
        "key": "t_uint256",
        "label": "mapping(uint256 => struct ProofOfAudit.AuditData)",
        "numberOfBytes": "32",
        "value": "t_struct(AuditData)4213_storage"
      },
      "t_string_storage": {
        "encoding": "bytes",
        "label": "string",
        "numberOfBytes": "32"
      },
      "t_struct(AuditData)4213_storage": {
        "encoding": "inplace",
        "label": "struct ProofOfAudit.AuditData",
        "members": [
          {
            "astId": 4200,
            "contract": "contracts/ProofOfAudit.sol:ProofOfAudit",
            "label": "auditedContract",
            "offset": 0,
            "slot": "0",
            "type": "t_address"
          },
          {
            "astId": 4202,
            "contract": "contracts/ProofOfAudit.sol:ProofOfAudit",
            "label": "chainId",
            "offset": 0,
            "slot": "1",
            "type": "t_uint256"
          },
          {
            "astId": 4204,
            "contract": "contracts/ProofOfAudit.sol:ProofOfAudit",
            "label": "score",
            "offset": 0,
            "slot": "2",
            "type": "t_uint8"
          },
          {
            "astId": 4206,
            "contract": "contracts/ProofOfAudit.sol:ProofOfAudit",
            "label": "cid",
            "offset": 0,
            "slot": "3",
            "type": "t_string_storage"
          },
          {
            "astId": 4208,
            "contract": "contracts/ProofOfAudit.sol:ProofOfAudit",
            "label": "auditor",
            "offset": 0,
            "slot": "4",
            "type": "t_address"
          },
          {
            "astId": 4210,
            "contract": "contracts/ProofOfAudit.sol:ProofOfAudit",
            "label": "timestamp",
            "offset": 20,
            "slot": "4",
            "type": "t_uint64"
          },
          {
            "astId": 4212,
            "contract": "contracts/ProofOfAudit.sol:ProofOfAudit",
            "label": "revoked",
            "offset": 28,
            "slot": "4",
            "type": "t_bool"
          }
        ],
        "numberOfBytes": "160"
      },
      "t_struct(RoleData)21_storage": {
        "encoding": "inplace",
        "label": "struct AccessControl.RoleData",
        "members": [
          {
            "astId": 18,
            "contract": "contracts/ProofOfAudit.sol:ProofOfAudit",
            "label": "hasRole",
            "offset": 0,
            "slot": "0",
            "type": "t_mapping(t_address,t_bool)"
          },
          {
            "astId": 20,
            "contract": "contracts/ProofOfAudit.sol:ProofOfAudit",
            "label": "adminRole",
            "offset": 0,
            "slot": "1",
            "type": "t_bytes32"
          }
        ],
        "numberOfBytes": "64"
      },
      "t_uint256": {
        "encoding": "inplace",
        "label": "uint256",
        "numberOfBytes": "32"
      },
      "t_uint64": {
        "encoding": "inplace",
        "label": "uint64",
        "numberOfBytes": "8"
      },
      "t_uint8": {
        "encoding": "inplace",
        "label": "uint8",
        "numberOfBytes": "1"
      }
    }
  }
}